:0600000002085F02044843
:01000B0032C2
:03001300020105E2
:1000650075301F75311C75321F75331E75341F753C
:10007500351E75361F75371F75381E75391F753A4C
:100085001E753B1F753C00753D00753E00753F00B4
:09009500754000754100020016DF
:030016000206B02F
:10009E00754D33754E32754F317550367551357508
:1000AE0052347553397554387555377556237557FF
:1000BE003075582A7F007EF77D007C007580FFEE3C
:1000CE00528074705580FBBB70028019EBF4FA7489
:1000DE00705AC4035407FBED75F003A4244DFA2B9C
:1000EE00F98707800FEEC313FE4306F00C8C05BC98
:1000FE00040040C88F8222C021C0E0C0F0C082C080
:10010E0083C007C006C005C004C003C002C001C042
:10011E0000C0D075D018754A01754800AE437F00F7
:10012E008E828F83A3754D0A8F4E75D000120A35BD
:10013E0075D018AE828E3CAE437F008E828F83A325
:10014E00754D0A8F4E75D0001209FF75D018AE820C
:10015E008E3DAE447F008E828F83A3754D0A8F4EE7
:10016E0075D000120A3575D018AE828E3EAE447F21
:10017E00008E828F83A3754D0A8F4E75D0001209A3
:10018E00FF75D018AE828E3F75F00AE54284F540B9
:10019E0075F00AE54284E5F0F541754940758240F7
:1001AE0075D00012091075D01830B3030204007513
:1001BE00450075D00012009E75D018E582FF60E9EB
:1001CE00C01F75D00012096375D018D01FBF2A62E8
:1001DE00AD487E00ED24FFF582EE34FFF583754DBC
:1001EE00068E4E75D0001209FF75D018AD828D485F
:1001FE00AD497E00ED24BFF582EE34FFF583754DDB
:10020E00088E4E75D0001209FF75D018AD82AE83E0
:10021E0074402DF5497442B5490280057445B549BF
:10022E0002154985498275D00012091075D0180241
:10023E0001B7BF235DAD487E008D828E83A3754DC1
:10024E00068E4E75D0001209FF75D018AD828D48FE
:10025E00AD497E0074C12DF58274FF3EF583754D58
:10026E00088E4E75D0001209FF75D018AD82AE8380
:10027E0074402DF5497442B5490280057445B5495F
:10028E0002054985498275D00012091075D01802F1
:10029E0001B7E548701D8F1DFEED24D0FDEE34FF35
:1002AE00FEC374019D74808EF063F08095F0500350
:1002BE000201B77401B548237401B53C1E8F1D7E33
:1002CE0000ED24D0FDEE34FFFEC374029D74808ECB
:1002DE00F063F08095F050030201B77401B5481534
:1002EE00E53C70118F1DFEED24D0FDEE34FFFE4D6A
:1002FE0070030201B77403B54815E53E70118F1DEA
:10030E00FEED24D0FDEE34FFFE4D70030201B774F6
:10031E0002B54827E53C70237402B53D1E8F1D7E45
:10032E0000ED24D0FDEE34FFFEC374029D74808E6A
:10033E00F063F08095F050030201B77402B5481EC9
:10034E008F1D7E00ED24D0FDEE34FFFEC374039DA1
:10035E0074808EF063F08095F050030201B7740341
:10036E00B548237402B53D1E8F1D7E00ED24D0FDD1
:10037E00EE34FFFEC374089D74808EF063F080959A
:10038E00F050030201B7E548243CF9EF24D0F78F73
:10039E008275D00012092075D018AE487F008E826B
:1003AE008F83A3754D068F4E75D0001209FF75D041
:1003BE0018AE828E48AE497F008E828F83A3754D14
:1003CE00088F4E75D0001209FF75D018AE82AF831C
:1003DE0074402EF5497442B5490280057445B549FD
:1003EE0002054985498275D00012091075D0180290
:1003FE0001B7754C0175D00012088F75D018E582C3
:10040E0014F54375D00012089A75D018E58214F5CC
:10041E004475D0001208A575D018858242D0D0D070
:10042E0000D001D002D003D004D005D006D007D022
:10043E0083D082D0F0D0E0D02132C021C0E0C0F015
:10044E00C082C083C007C006C005C004C003C0027E
:10045E00C001C000C0D075D008754B01754800753D
:10046E00F00AE54784F53C75F00AE54784E5F0F5BA
:10047E003D75F00AE54684F53E75F00AE54684E5DD
:10048E00F0F53F75F00AE54584F54075F00AE5454F
:10049E0084E5F0F54175490075820075D0001209AA
:1004AE001075D00830B20302066C75450075D00089
:1004BE0012009E75D008E582FF60E9C00F75D0006E
:1004CE0012096375D008D00FBF2A5FAD487E00EDCC
:1004DE0024FFF582EE34FFF583754D068E4E75D0F2
:1004EE00001209FF75D008AD828D48AD497E00ED32
:1004FE0024FFF582EE34FFF583754D088E4E75D0D0
:10050E00001209FF75D008AD82AE838D497402B515
:10051E00490280057405B54902154985498275D091
:10052E000012091075D0080204B2BF2355AD487EE3
:10053E00008D828E83A3754D068E4E75D0001209E6
:10054E00FF75D008AD828D48AD497E008D828E83B9
:10055E00A3754D088E4E75D0001209FF75D008ADEB
:10056E0082AE838D497402B5490280057405B54982
:10057E0002054985498275D00012091075D008020E
:10058E0004B27403B5480280057405B5481E8F0D7C
:10059E007E00ED24D0FDEE34FFFEC374059D748005
:1005AE008EF063F08095F050030204B2E548701DA2
:1005BE008F0DFEED24D0FDEE34FFFEC374029D744C
:1005CE00808EF063F08095F050030204B27401B592
:1005DE0048238F0D7E00ED24D0FDEE34FFFEC37454
:1005EE00039D74808EF063F08095F050087402B510
:1005FE003C030204B2E548243CF9EF24D0F78F8285
:10060E0075D00012092075D008AE487F008E828FFB
:10061E0083A3754D068F4E75D0001209FF75D00855
:10062E00AE828E48AE497F008E828F83A3754D08B1
:10063E008F4E75D0001209FF75D008AE82AF838E33
:10064E00497402B5490280057405B549020549850C
:10065E00498275D00012091075D0080204B2754C8B
:10066E000175D00012088F75D00885824775D000AD
:10067E0012089A75D00885824675D0001208A575A5
:10068E00D008858245D0D0D000D001D002D003D082
:10069E0004D005D006D007D083D082D0F0D0E0D0E1
:1006AE002132754A00754B00754C00D288D28A757E
:1006BE00A88575450075470075460075430075445D
:1006CE00007542007549001208F81208CFD200D208
:1006DE0001D2021208DBE54C6006120904754C00CB
:1006EE007582001209101207591208B0054575F0EF
:1006FE003CE54584E5F070DE054675F03CE5468444
:10070E00E5F07042054775F018E54784E5F0703363
:10071E00054485424D854382120865E582FF30E728
:10072E0002F404F5F0E54484E5F07014054375F029
:10073E000CE54384E5F070050542754300754400F1
:10074E00754700754600754500808B75F00AE547C4
:10075E00842430F58212092075F00AE54784E5F00D
:10076E002430F58212092075823A12092075F00A9A
:10077E00E546842430F58212092075F00AE5468498
:10078E00E5F02430F58212092075823A120920759F
:10079E00F00AE545842430F58212092075F00AE549
:1007AE004584E5F02430F582120920758240120945
:1007BE0010AE437F008E828F83A3754D0A8F4E122B
:1007CE000A35AE8274302EF582120920AE437F00B8
:1007DE008E828F83A3754D0A8F4E1209FFAE8274DF
:1007EE00302EF58212092075822D120920AE447F1B
:1007FE00008E828F83A3754D0A8F4E120A35AE82FC
:10080E0074302EF582120920AE447F008E828F83C3
:10081E00A3754D0A8F4E1209FFAE8274302EF582EB
:10082E0012092075822D12092075F064E54284E5C7
:10083E00F075F00A842430F58212092075F064E513
:10084E004284E5F075F00A84E5F02430F582020961
:10085E002075815F0206B0AF827E00E54DA2E7549F
:10086E00036004500244FC70027E01EE600CBF0176
:10087E0009EF2430F9E704F58222EF2430F987825C
:10088E0022E53C75F00AA4253DF58222E53E75F081
:10089E000AA4253FF58222E54075F00AA42541F50C
:1008AE008222758901758A2F758C3CD28C308DFD14
:1008BE00C28CC28D22C2A3759002D2A2C2A202091C
:1008CE0063C2A3759006D2A2C2A202095AC297C2EF
:1008DE0096C295C294D293A2009292A2019291A234
:1008EE00029290D2A2C2A202095AC2A3759038D225
:1008FE00A2C2A202095AC2A3759001D2A2C2A2023A
:10090E000963AF82C2A374804FF590D2A2C2A20235
:10091E00095AAF82D2A38F90D2A2C2A202095AADB7
:10092E0082AE83AFF08D828E838FF01209E3FCA32B
:10093E00AD82AE83ECFB60138B82C007C006C00590
:10094E00120920D005D006D00780DA227F32EF14AC
:0F095E00FEFF70FA227FFF8F061EEEFF70F92258
:06003B00E478FFF6D8FD99
:100019007900E94400601B7A00900A6D780175A0A7
:1000290000E493F2A308B8000205A0D9F4DAF27546
:02003900A0FF26
:10096D00E54D454E60467A01E54D25E0F54DE54EE8
:10097D00334012F54EE582954DE583954E40030AC1
:10098D0080E6C3E54E13F54EE54D13F54DC3E582F7
:10099D00954DF5F0E583954E4005F58385F082C3C1
:0D09AD00E54E13F54EE54D13F54DDAE12250
:100041007800E84400600A790175A000E4F309D85A
:10005100FC7800E84400600C7900900001E4F0A312
:04006100D8FCD9FAF4
:1009BA007A10E4FBFCE58225E0F582E58333F583D2
:1009CA00EB33FBEC33FCEB954DF5F0EC954E400622
:1009DA00FCABF0438201DADD2220F71430F61488EA
:1009EA0083A88220F507E6A88375830022E280F7B0
:1009FA00E49322E022C2D5E58330E70DD2D5E4C3E1
:100A0A009582F582E49583F583E54E30E70BE4C3DE
:100A1A00954DF54DE4954EF54E12096D30D50BE422
:100A2A00C39582F582E49583F58322C2D5E58330A6
:100A3A00E70DD2D5E4C39582F582E49583F583E583
:100A4A004E30E70DB2D5E4C3954DF54DE4954EF51C
:100A5A004E1209BA30D50BE4C39582F582E4958328
:030A6A00F58322EF
:00000001FF
